:020000040810E2
:10000000286B00103903100893301008492B100892
:100010009130100893051008973E1008000000006A
:10002000000000000000000000000000D5351008AE
:10003000950510080000000095301008D73510080D
:1000400053031008530310085303100853031008F8
:1000500053031008530310085303100853031008E8
:1000600053031008530310085303100853031008D8
:1000700053031008530310085303100853031008C8
:1000800053031008530310085303100853031008B8
:1000900053031008530310085303100853031008A8
:1000A0005303100853031008530310085303100898
:1000B0005303100853031008530310085303100888
:1000C0005303100853031008530310085303100878
:1000D0005303100853031008530310085303100868
:1000E00053031008530310080000000053031008C6
:1000F0005303100853031008530310085303100848
:100100005303100853031008530310085303100837
:100110005303100853031008530310085303100827
:100120005303100853031008530310085303100817
:100130005303100853031008530310085303100807
:1001400053031008530310080000000000000000D3
:1001500053031008530310085303100853031008E7
:1001600053031008530310085303100853031008D7
:100170005303100853031008530310080000000035
:1001800053031008530310085303100853031008B7
:1001900053031008530310085303100853031008A7
:1001A0005303100853031008530310085303100897
:1001B0005303100853031008530310085303100887
:1001C0005303100853031008530310085303100877
:1001D0005303100853031008530310085303100867
:1001E0005303100853031008530310085303100857
:1001F0005303100853031008530310085303100847
:100200005303100853031008530310085303100836
:100210005303100853031008530310085303100826
:100220005303100853031008530310080000000084
:100230005303100853031008530310085303100806
:1002400053031008530310085303100853031008F6
:1002500053031008530310085303100853031008E6
:1002600053031008530310085303100853031008D6
:1002700053031008530310085303100853031008C6
:100280005303100853031008530310080000000024
:10029000530310085303100800F002F800F03CF874
:1002A0000AA090E8000C82448344AAF10107DA45D1
:1002B00001D100F031F8AFF2090EBAE80F0013F0E7
:1002C000010F18BFFB1A43F001031847503D00000F
:1002D000703D0000103A24BF78C878C1FAD85207A0
:1002E00024BF30C830C144BF04680C6070470000B0
:1002F0000023002400250026103A28BF78C1FBD82F
:10030000520728BF30C148BF0B6070471FB503F0CC
:100310003DFE1FBD10B510BD00F001F91146FFF7FD
:10032000F5FF03F0C9FD00F01FF903B4FFF7F2FF7A
:1003300003BC00F027F9000009488047094800473E
:10034000FEE7FEE7FEE7FEE7FEE7FEE7FEE7FEE785
:10035000FEE7FEE704480549054A064B70470000E2
:10036000DD35100899021008280B0010286B0010CA
:10037000282B0010282B001053EA020C00F0698093
:100380002DE9F04B4FF00006002B1FBFB3FA83F5A9
:1003900003FA05F424FA05F65E4012BF1643B2FADA
:1003A00082F502FA05F4C5F120051EBF22FA05FC0C
:1003B00044EA0C04203556EA044C4FEA144418BFB2
:1003C000641C4FF000084FF00009904271EB030CE1
:1003D00039D3002919BFB1FA81F701FA07F6B0FA4B
:1003E00080F700FA07F6C7F120071EBF20FA07FCC6
:1003F00046EA0C062037B6FBF4FCA7EB0507103FD6
:1004000007F01F0BCBF120060CFA0BFB2CFA06F6BB
:1004100044BFB3460026202FA4BF5E464FF0000B1A
:100420005BEA060C08BF4FF0010B19EB0B09ABFBA5
:10043000027C48EB0608C01B06FB02CC0BFB03CC7E
:1004400071EB0C01C1E70B46024641464846BDE848
:10045000F08B13B54FF000004FF00001AFF30080B8
:10046000BDE81C40704710B5203AC0F00B80B1E8E1
:100470001850203AA0E81850B1E81850A0E81850D9
:10048000BFF4F5AF5FEA027C24BFB1E81850A0E8E2
:10049000185044BF18C918C0BDE810405FEA827CFC
:1004A00024BF51F8043B40F8043B08BF7047D20713
:1004B00028BF31F8023B48BF11F8012B28BF20F8B4
:1004C000023B48BF00F8012B70474FF0000200B517
:1004D000134694469646203922BFA0E80C50A0E867
:1004E0000C50B1F12001BFF4F7AF090728BFA0E815
:1004F0000C5048BF0CC05DF804EB890028BF40F8E1
:10050000042B08BF704748BF20F8022B11F0804F22
:1005100018BF00F8012B7047704770477047754649
:1005200000F02CF8AE4605006946534620F007005F
:10053000854618B020B5FFF70DFFBDE820404FF00D
:1005400000064FF000074FF000084FF0000B21F0BD
:100550000701AC46ACE8C009ACE8C009ACE8C0098A
:10056000ACE8C0098D46704710B50446AFF3008073
:100570002046BDE81040FFF7D8BE00000048704795
:10058000C40A001001491820ABBEFEE72600020095
:100590007047FEE7704770B5A2B0012500240646FB
:1005A0008DF80450680306908DF80F508DF80E50AA
:1005B0004FF4C3600D908DF80C40129420201790DA
:1005C0008DF81D408DF828408DF81F400F94099438
:1005D0008DF8325014944FF040508DF860500294D2
:1005E00000908DF838408DF81C40A8038DF86140CC
:1005F0008DF81E5005908DF862400B948DF83140B7
:1006000002208DF811508DF8404016908DF8124060
:100610008DF856408DF820508DF854408DF83040BC
:100620008DF810508DF80D408DF8554011948DF8CF
:100630004C506946304600F06BF88DF87140690502
:100640008DF868501B958DF870404FF40670199422
:100650008DF880401F911D9121908DF878408DF884
:10066000814019A9304600F003F822B070BD0000A7
:1006700030B5026802F58052136847F60204A343BE
:100680000C68234313600A790B7B120342EAC333DD
:100690008A681343026802F5805254684DF20105DE
:1006A000AC431C4354604B7B0A6A42EA0344026831
:1006B00002F58052D2F80031124D2B402343C2F88C
:1006C00000310A7D4B7F120142EA03330A6913436A
:1006D000026802F58052D2F804410B4D2C401C43B5
:1006E000C2F804418A690068097F00F5805042EA37
:1006F000C171D0F80821054B1A400A43C0F80821FF
:1007000030BD000000C0FEFFEFEFC0FFFFFFC07F65
:1007100030B50B688A680C7B1A430B79DB0643EA19
:10072000C4531A434B7B42EA83528B7B42EA4352C7
:10073000CB7B42EA03520B7C002B7DD05FF00003A1
:1007400042EAC3424B7C002B77D0002342EA43426B
:100750008B7C42EA03424B691A438B691A430B7F35
:1007600042EA03324B7F42EAC3228B7F002B66D0E2
:100770005FF0000342EA8322CB7F42EA432291F8F2
:100780002030002B7DD0002342EA03224B6A1A431B
:1007900091F8283042EA0312CB6A1A4303681C68B6
:1007A000434D2C4014431C6091F83C2091F83830A4
:1007B000520642EA036291F8303042EA834291F8ED
:1007C000313042EA434291F83230BBB35FF000036C
:1007D00042EA03424B6B1A4303685C68354D2C4078
:1007E00014435C6091F840304A6C42EA032402688A
:1007F000D36840F20F15AB432343D36091F85430D4
:100800000A6D42EA430291F84C30DBB30023B1F8A1
:100810004840DB0143EA04431A4303681C6F4FF668
:100820000D752C4014431C6791F8562091F85530F3
:1008300042EA4302036803E02BE02CE031E02CE0C5
:1008400053F8904F24F0030414431C600268D2F85C
:10085000003D8C6D23F072032343C2F8003D91F8F4
:100860006030CA6D0BB3002342EA831211F8613F76
:10087000006849781B0143EAC1010A43D0F8301DE2
:1008800001E00CE00FE021F07B011143C0F8301DC6
:1008900030BD012354E7012358E701236AE7012310
:1008A00072E7012394E70123B1E70123DCE70000AD
:1008B000838004000080F8C030B50368426B53F8B1
:1008C000844F4FF6FC718C4344EA82041C60036839
:1008D00053F8844F058F24F47F0444EA05441C60D8
:1008E000836B1A44036853F8884F8C4344EA8204AC
:1008F0001C60036853F8884F858F24F4FE0444EA93
:1009000005441C60C36B02EB4302036853F8A04F1D
:100910008C4344EA82041C60036853F8A04FB0F88B
:10092000405024F4FE0444EA05441C60D0E910342D
:1009300003FB0422036853F8B04F8C4344EA82045B
:100940001C60036853F8B04FB0F8485024F4FE041C
:1009500044EA05441C60D0E9123403FB0422036816
:1009600053F8AC4F8C4344EA82041C60D0E9143441
:1009700003FB0422036853F8F04F8C4344EA8204DB
:100980001C60036853F8F04FB0F8585024F47C14FE
:1009900044EA05441C60836D02EB4303026852F88D
:1009A000C04F8C4344EA83011160016851F8C02FA5
:1009B000B0F85C3022F47C1242EA03420A6001681B
:1009C00051F8C02F90F8603022F07C5242EA036266
:1009D0000A60244A416B02EB8101C166826B01EB24
:1009E00082020267C36B02EBC3024267D0E9103494
:1009F000634302EB83028267D0E91234634302EB64
:100A00008302C267D0E91434634302EB8302C0F867
:100A10008020836D02EBC303C0F88430C46D826E06
:100A2000544303EB8403C0F88830046E544303EB53
:100A300084020D4BC0F890209A4209D950F89C1FAF
:100A400041F0200140F8041903210170012030BD5C
:100A5000002200E004C1D0F890308B42FAD8002088
:100A600030BD000000AC0040FCD30040F0B5D1E93F
:100A700007354C6A0A68C2B102682B4322F4F84277
:100A8000144323430360D1E901231A43D1E903341A
:100A900023431A434B6989691A430A4341686FF338
:100AA0000E010A4342600020F0BDD1E90126324325
:100AB000D1E903673E4332434E69896932430A43B1
:100AC0001A432A43016822436FF30E010A4302606E
:100AD000E9E70000F0B56FF00F058C8A2E014FEAB0
:100AE000054ECB682F034FF07F4C0EEB04540AB336
:100AF0001A03A2F58052836822431D4C23401A43F7
:100B00008260D1E9002305EB0313521E1A438B6860
:100B100006EB03231A430B8A097E07EB03431A43B0
:100B20000CEB01610A43C16801F070410A43C260E5
:100B30000020F0BDD1E9002E05EB0E15521E2A4310
:100B40008D6806EB05252A430A4D05EB03331A434E
:100B50000B8A097E07EB03431A4322430CEB016126
:100B60000A43816801F070410A438260E0E70000B7
:100B7000FF0F0FFF00F0FFFF70B5044600F0E6FC2A
:100B80000546601C02D004480078044400F0DEFCF6
:100B9000401BA042FAD370BD10000010F8B504004D
:100BA00002D0606D10B104E00120F8BD204600F0D5
:100BB000FBF8232060657248016841F00201016082
:100BC000006800F002000090207A08B14FF40000A5
:100BD00001F0C8FE206800F58050016841F0010175
:100BE000016000F0B3FC0546E0264FF4FA7706E01A
:100BF00000F0ACFC401BB84201D9042049E0206859
:100C000000F580500068C007F2D12068D0F80002DB
:100C100020F4706501F0B2FB5A495B4A01449142ED
:100C200002D245F4007516E05849594A01449142F0
:100C300002D245F440750EE05649574A01449142AC
:100C400009D3564908445649884202D245F4807572
:100C500001E045F480652068C0F8005201F08EFB89
:100C60005049B0FBF1F02168401EC1F8DC0020467D
:100C7000FFF791FC206800F58050D0F8001121F4B6
:100C8000E01141F40021C0F800116169880703D028
:100C90000120E065666587E7206800F58050D0F8A0
:100CA000082147F6FE739A4342EA4101C0F8081151
:100CB00000221046E16802EB420301EBC301086029
:100CC00048608860C86004EB8203521C9961042A62
:100CD000F0D3A0622168032301F58051C1F82C31C3
:100CE0002168E26801F58051C1F814212168E268A9
:100CF00001F58051C1F820215FF00002216902EB6B
:100D0000420501EBC501086048608860C86004EBDB
:100D1000820508614861521CE962042AEED3E0634F
:100D200020646064E064A064216801F58051C1F82A
:100D300030312168226901F58051C1F81C212268F7
:100D4000216902F580524831C2F828116168226891
:100D50008988C2F8001361680A78CB7842EA036296
:100D60008B7849781B0443EA01210A432168C1F8C2
:100D70000423E06510206065A0650020F8BD000038
:100D8000F444025800D3CEFEC0E1E40040F1E9FD96
:100D900040787D0100796CFC005A6202001F0AFA5B
:100DA00080F0FA0240420F0070B586B0044614216C
:100DB0006846FFF78AFB5249206888427DD1514836
:100DC000016841F400410160016801F400410591AE
:100DD000016841F480310160016801F480310591BE
:100DE000016841F400310160006800F400300590B2
:100DF00044480830016841F040010160016801F099
:100E000040010591016841F010010160016801F0A5
:100E100010010591016841F480710160016801F4DD
:100E200080710591016841F004010160016801F0E1
:100E300004010591016841F080010160016801F041
:100E400080010591016841F001010160016801F034
:100E500001010591016841F002010160006802256D
:100E600000F0020005904FF4605000900024CDE99E
:100E700001540B26CDE903466946234800F022FAC7
:100E800004200090CDE90154CDE9034669461F488E
:100E900000F018FA68020090CDE90154CDE903464C
:100EA00069461B4800F00EFA3E200090CDE901543F
:100EB000CDE903466946174800E01FE000F002FA5A
:100EC0000C200090CDE90154CDE903466946124853
:100ED00000F0F8F986200090CDE90154CDE90346F1
:100EE00069460E4800F0EEF903200090CDE9015468
:100EF000CDE9034669460A4800F0E4F906B070BD42
:100F000000800240D84402580018025800100258CD
:100F10000020025800080258001C02580000025825
:100F2000000402582DE9F04194B004464C228B494C
:100F30006846FFF798FA64B1894D2068A84202D14B
:100F400000F58070606094F898004FF0000820B1C0
:100F500008E0012014B0BDE8F08184F899802046B3
:100F600000F000F92068816921F01001816100F032
:100F7000EDFA0646032704E000F0E8FA801B0A2891
:100F800011D8206880690007F6D42068816941F093
:100F90000101816100F0DAFA06460CE000F0D6FAB1
:100FA000801B0A2807D954F89C0F40F0010044F830
:100FB00004092770CDE720688069C007EED020685B
:100FC000816941F002018161207C012820688169EA
:100FD00037D041F040018161607C0128206881693F
:100FE00032D021F480418161A07C01282068816990
:100FF0002DD041F48051816120688169A26821F47B
:101000004071114381612068816921F0A4018161EF
:101010002068016921F010010161E068012819D000
:1010200010B302281BD02068816941F080018161E2
:101030002068016941F010010161E06803280ED0C9
:1010400012E021F04001C6E741F48041CBE721F4F2
:101050008051D0E72068816941F0040103E02068F5
:10106000816941F020018161207EE26940066FF0D4
:10107000FF0101EB0222A0F100701043226AA38A53
:10108000521E10430A0202EB034318432368D8613F
:10109000A068B0F5407F10D1D4E90A0301EB032129
:1010A000401E0843216B131303EB01110843A18C6D
:1010B00002EB014108432168C860206E28B1206816
:1010C00050F8C01F626E11430160D4E91701C84295
:1010D000684609D0216851F8C82FA36E22F0070294
:1010E00050F823301A430A60216C49B1216851F845
:1010F000BC2F636C22F0070250F823301A430A60B9
:10110000A16C51B1216851F8BC2FE36C22F0700240
:1011100050F8233042EA03120A60216D51B1216870
:1011200051F8BC2F636D22F4E06250F8230042EACC
:10113000002008602068A84204D16068816821F01E
:1011400003018160C4F89480C4F89C80012084F875
:1011500098002046FFF7B0FBFCE60000A83F10080F
:1011600000A00040F0B587B0044614216846FFF7A0
:10117000ACF92768264C274ADFF890C02068002386
:1011800024490C3A02250926401C67451AD12060E3
:10119000012807D1086840F480700860086800F4EE
:1011A00080700590106840F08000106010686946FB
:1011B00000F0800005904FF4C0400090CDE901534D
:1011C00015481DE0DFF854C067451DD12060012897
:1011D00007D1086840F480700860086800F48070E7
:1011E0000590106840F0020010601068694600F039
:1011F0000200059042F220000090CDE9015308481A
:10120000CDE9033600F05EF807B0F0BD00A0004065
:1012100000000010EC440258001C025800A40040DA
:1012200000040258F0B587B014216846FFF74DF965
:101230001D484168002935D1012141601B480168E2
:1012400041F4805101600068022400F48050059050
:101250004FF68370002503260C278DE8F1006946C0
:10126000134800F02FF848F233108DE8F10069467A
:10127000104800F027F84CF203708DE8F100694641
:101280000D4800F01FF84FF63F008DE8F100694669
:101290000A4800F017F8E0208DE8F1006946084898
:1012A00000F010F807B0F0BD00000010D444025860
:1012B0000010025800180258000C0258001402587E
:1012C000001C02582DE9FC4F00230125844E032405
:1012D0004FF00F094FF0B04AFBE000BF05FA03F7EB
:1012E0003A407DD0D1F804C0BCF1010F08D0BCF168
:1012F000020F05D0BCF1110F02D0BCF1120F1AD1B0
:10130000D0F808C04FEA430E04FA0EF82CEA080B96
:10131000D1F80C8008FA0EF848EA0B08C0F80880EB
:10132000D0F804C02CEA070C0F79C7F300179F40D0
:1013300047EA0C074760C7684FEA4308D1F808C07E
:1013400004FA08FB27EA0B070CFA08FC4CEA070C26
:10135000C0F80CC04F68022F01D0122F15D1DF0842
:1013600000EB87070197D7F820E05F07FF0E09FA27
:1013700007FC2EEA0C0E0097D1F810C00CFA07FCFF
:10138000019F4CEA0E0CC7F820C0076891F804C012
:1013900027EA0B070CF0030C0CFA08FC4CEA070CCC
:1013A000C0F800C04F68FF001AD54E4FD7F800C0F4
:1013B0004CF0020CC7F800C03F6807F00207009726
:1013C00023F0030707F1B047BB46D7F808744FEA8C
:1013D000837C4FEA1C7809FA08FC27EA0C0700E036
:1013E00076E0DFF804C1604502D14FF0000C40E028
:1013F000DFF8F8C0604502D14FF0010C39E0DFF8AA
:10140000F0C0604502D14FF0020C32E0DFF8E4C0DA
:10141000604502D14FF0030C2BE0DFF8DCC06045E3
:1014200002D14FF0040C24E0DFF8D0C0604502D1B7
:101430004FF0050C1DE0DFF8C8C0604502D14FF049
:10144000060C16E0DFF8BCC0604502D14FF0070C77
:101450000FE0DFF8B4C0604502D14FF0080C08E09F
:10146000DFF8A8C0604502D14FF0090C01E04FF051
:101470000A0C0CFA08FC4CEA070CCBF808C43768D5
:10148000D1F804C097435FEACC3C00D517433760DE
:101490007768D1F804C097435FEA8C3C00D51743C6
:1014A0007760DAF80070D446D1F8048097435FEA99
:1014B000C82800D51743CCF80070DCF80470D1F8C8
:1014C000048097435FEA882800D51743CCF804705E
:1014D0005B1C0A6832FA03F77FF400AFBDE8FC8FAB
:1014E000C0000058F444025800000258000402589A
:1014F00000080258000C025800100258001402584C
:1015000000180258001C02580020025800240258FB
:10151000426931EA020200D10904816170470AB1CF
:10152000816170470904FBE704480068C0F30310B9
:10153000072801D0012070470320704700ED00E02C
:1015400001480068000C70470010005C014880688A
:10155000704700001000001002490A6802430A6048
:1015600070470000106502580248816802781144F3
:1015700081607047100000101C4808B5016841F4F4
:1015800080410160006800F48040009018480168C4
:10159000184A114041F401410160016841F0010124
:1015A0000160032000F02CFA00F02CFF0F49C03935
:1015B0000A680968C2F303230F4AD35C03F01F03D0
:1015C000D84001F00F01515C01F01F01C8400B49E8
:1015D00008600B490860002000F014F808B10120F1
:1015E00008BD00F0DFF9002008BD0000D844025813
:1015F00000440240FF00F0FF0C40100820000010E3
:101600001C00001070B50D4D04462878A0B14FF4B1
:101610007A71B1FBF0F00A490968B1FBF0F001F012
:10162000ABF948B9102C07D200222146501E00F019
:10163000C7F900206C6070BD012070BD1000001063
:101640001C000010F8B5002604460096806D0D467B
:10165000800F0870A06DC0F383604870A06DC0F368
:1016600001608870A06D000CC870B4F85800000AC2
:10167000287194F858006871E06D000DE880E06D05
:10168000C0F303402872B4F85C00C0F3C030687245
:10169000B4F85C00C0F38030A872B4F85C00C0F30A
:1016A0004030E872B4F85C00C0F3003028736E7309
:1016B0006FF07043D4226946204601F0BFFA08B1AA
:1016C0000120F8BDE06B4FF40073012158B10128EF
:1016D00039D0226841489063A06B40F08050A063ED
:1016E00084F83410ECE7B4F85C00226E8005000D3D
:1016F00040EA92702861206EC0F3C2602875206EA7
:10170000C0F302606875206EC0F34250A875206E69
:10171000C0F38240E875206EC0F3C2302876286995
:10172000401CA0642A7E02F00702921C9040A06434
:101730002A7A02F00F0201FA02F2E264520A5043DE
:10174000C4E9140304E00098A064C4E9133063659D
:1017500034F8600FC0F3803005F8190F2088C0F30B
:10176000C6106870207800F07F00A8706068C00F15
:10177000E8706068C0F3417028716068C0F38260EF
:1017800068716068C0F38350A8716068C0F340500E
:10179000E8712E726068C0F300406872A088C0F3E0
:1017A000C030A872A088C0F38030E872A088C0F36F
:1017B00040302873A088C0F300306873A088C0F35D
:1017C0008120A873A088C0F30120E8732079C0F3BA
:1017D0004600287469740020F8BD0000FF0FE01F68
:1017E00070B5040004D094F83400002510B105E071
:1017F000012070BD2577204600F080F8032084F892
:101800003400204600F00AF80128F2D0A5632563D1
:10181000012084F83400002070BD00002DE9FE4353
:10182000044600254FF4803000F0BEFC06462F48E9
:101830002B46B6FBF0F78DE8A0012A462946206822
:1018400001F09CFE206801F0A9FE7800B6FBF0F0E4
:1018500020B12749B1FBF0F0401C00E00220FFF767
:101860008BF90095206801F075FC012630BB1BE068
:101870000098411C0091B84202D14FF080701DE0E9
:101880004146206801F090FC10B14FF0805015E007
:101890000021206801F06EFEC10FE9D0C021B1EB3C
:1018A000106F06D1E66305E04FF6FF77DFF844805E
:1018B000DEE7E563204601F048F928B184F834609A
:1018C000A16B0143A1630EE04FF40071206801F0A9
:1018D00027FC002808D0226807499163A16B0143C7
:1018E000A16384F834600120BDE8FE8300350C005C
:1018F000102101000080FFC0FF0FE01FF0B587B08E
:10190000044614216846FEF7E0FD2149206888421C
:101910003CD12048016841F480310160006800F446
:10192000803005901B480C30016841F004010160D3
:10193000016801F004010591016841F002010160B4
:10194000016801F002010591016841F008010160A0
:101950000068022400F0080005904FF4FE500025B6
:1019600003260C278DE8F10069460B48FFF7AAFC17
:1019700030028DE8F10069460848FFF7A3FC042017
:101980008DE8F10069460648FFF79CFC07B0F0BD02
:1019900000700052D4440258000802580004025853
:1019A000000C0258054808B5016841F002010160C9
:1019B000006800F00200009008BD0000F4440258E6
:1019C000F0B40E4B1B680C46C3F30223C3F10705AA
:1019D000042D00D90425191D072901D2002300E098
:1019E000DB1E012606FA05F1491E214099409E4062
:1019F000761E16403143F0BC02F04EBA0CED00E00A
:101A0000064900F0070208684FF6FF03184040EA55
:101A10000220034A10430860704700000CED00E00C
:101A20000000FA0501220168C0F8FC23002280F8BA
:101A3000F423886940F000608861486D024A1043D1
:101A40004865002070470000030000102DE9F041B8
:101A50008AB0040005D094F8BD032668002520B1A3
:101A600008E001200AB0BDE8F08184F8BC532046AC
:101A700000F064F8032084F8BD03F06BC00500D4C7
:101A80002561206802F0C8F904F110012822884677
:101A90006846FEF7E8FC94E80F0002F0A3F802267F
:101AA000C8BB0021206802F0DFF9002001270EE00A
:101AB000C0EBC00104EB810181F83D7001F83C0FDF
:101AC000C880CD708D60CD60401CC0B24D61616832
:101AD0008142EDD8002011E0C0EBC00104EB810190
:101AE00081F8FD5181F8FC0181F8FF51C1F80452E1
:101AF000C1F80852401CC0B2C1F81052616881425E
:101B0000EAD8282241466846FEF7ADFC94E80F006B
:101B100002F0CAF810B184F8BD63A2E784F8385027
:101B200084F8BD73606A012802D12046FFF77AFF6E
:101B3000206802F0ADF8002094E7000030B587B0CF
:101B4000044614216846FEF7C0FC18492068884204
:101B50002AD11748016841F00101016000680024A2
:101B600000F0010005904FF40070CDE90004114D24
:101B7000694628460294FFF7A5FB4FF4C050009039
:101B80000220CDE901040A20CDE903406946284638
:101B9000FFF798FB06480838016841F000610160D2
:101BA000006800F00060059007B030BD00000840FC
:101BB000E04402580000025810B5FFF7B5FC0328B6
:101BC00000D040BF20BF10BD2DE9F0410F46204995
:101BD0000B6823F0010303430B601D4D1D4C1035B2
:101BE00062B12E1D012A17D0FFF79EFC032829D0D1
:101BF000306820F004003060BDE8F081FFF794FC0D
:101C00000328F9D1286820F0010028600CE0206842
:101C100020F004002060EFE7FFF786FC0128EBD1FD
:101C2000306820F002003060206840F0040020603E
:101C3000BFF34F8FBFF36F8F012F01D020BFE6E7B7
:101C400030BFE4E7286820F004002860D4E70000F3
:101C50000048025810ED00E038B50446FFF776FC66
:101C600005461CB194F8410010B107E0012038BDD1
:101C7000204600F041F841F28830A06420680168F5
:101C8000A2686FF0FF0321F4706103EB022211439D
:101C90000160A06C00902B4600222021204601F01C
:101CA000FAF90028E3D1E269E16823791143226A55
:101CB00042EA03621143226813680D4D2B40194319
:101CC0001160D4E90512114322685368094D2B4075
:101CD000258A43EA05431943516021680A6842F0A6
:101CE00001020A6000216164012184F8411038BDBD
:101CF0002FFFFF00FEF8E0FF2DE9F04186B004461B
:101D000014216846FEF7E1FB2C492068884251D136
:101D10002B48016841F480410160006800F4804074
:101D2000059027480C30016841F00201016001680C
:101D300001F002010591016841F020010160016894
:101D400001F020010591016841F00801016000687F
:101D5000022500F008000590402000900024CDE905
:101D600001540A26CDE9034669461648FFF7AAFA48
:101D70004FF498600090CDE901540927DFF84880BE
:101D8000CDE9034769464046FFF79CFA28020090D8
:101D9000CDE90154CDE9034669464046FFF792FA82
:101DA000A8020090CDE90154CDE9034769460748F0
:101DB000FFF788FA06B0BDE8F0810000005000523D
:101DC000D44402580004025800140258000C02586F
:101DD00010B500F0D3FA05490968054AC1F30211AC
:101DE000515C01F01F01C84010BD000020440258A2
:101DF0000C401008484910B50A68096802F003034E
:101E0000454AC1F30511121D1268434C02F001024C
:101E10000C342468C4F3CC0414FB02F200EE102A44
:101E2000F8EE400AE9B33C4A9FED3C1A0832B7EE9F
:101E3000000A63B1DFED3A1A012B01D0022B5ED00C
:101E400002EE101AF8EE422A81EEA22A1AE0324B74
:101E5000283B1C68A4060DD51B68C3F3C104314B95
:101E6000E34001EE903AF8EE612A01EE901AF8EEA6
:101E7000611A05E001EE901ADFED2B2AF8EE611AE7
:101E800082EEA12A1168C1F3080101EE901A1168CF
:101E9000F8EE611A40EE811A71EE800A62EE200AB5
:101EA00000E033E0C1F3462101EE101AB8EE411A0A
:101EB00031EE001AC0EE811ABCEEE11A80ED001A74
:101EC0001168C1F3064101EE101AB8EE411A31EE65
:101ED000001AC0EE811ABCEEE11A80ED011A1168F9
:101EE000C1F3066101EE101AB8EE411A31EE000A94
:101EF00080EE801ABCEEC10A80ED020A10BD01EE30
:101F0000901ADFED0A2AF8EE611AB9E700210160A4
:101F10004160816010BD0000284402580000003973
:101F20000024744A0090D0030024744C20BCBE4BA3
:101F3000484910B50A68096802F00303454AC1F32D
:101F40000531121D1268434CC2F300121434246888
:101F5000C4F3CC0414FB02F200EE102AF8EE400A9F
:101F6000E9B33C4A9FED3C1A1032B7EE000A63B168
:101F7000DFED3A1A012B01D0022B5ED002EE101ACF
:101F8000F8EE422A81EEA22A1AE0324B283B1C6866
:101F9000A4060DD51B68C3F3C104314BE34001EE29
:101FA000903AF8EE612A01EE901AF8EE611A05E017
:101FB00001EE901ADFED2B2AF8EE611A82EEA12ACB
:101FC0001168C1F3080101EE901A1168F8EE611A68
:101FD00040EE811A71EE800A62EE200A00E033E0E2
:101FE000C1F3462101EE101AB8EE411A31EE001A83
:101FF000C0EE811ABCEEE11A80ED001A1168C1F33F
:10200000064101EE101AB8EE411A31EE001AC0EE88
:10201000811ABCEEE11A80ED011A1168C1F3066164
:1020200001EE101AB8EE411A31EE000A80EE801A65
:10203000BCEEC10A80ED020A10BD01EE901ADFED80
:102040000A2AF8EE611AB9E7002101604160816057
:1020500010BD000028440258000000390024744AD2
:102060000090D0030024744C20BCBE4B484910B5EE
:102070000A68096802F00303454AC1F30551121DBD
:102080001268434CC2F300221C342468C4F3CC040D
:1020900014FB02F200EE102AF8EE400AE9B33C4AC3
:1020A0009FED3C1A1832B7EE000A63B1DFED3A1A21
:1020B000012B01D0022B5ED002EE101AF8EE422A5C
:1020C00081EEA22A1AE0324B283B1C68A4060DD5EB
:1020D0001B68C3F3C104314BE34001EE903AF8EEC4
:1020E000612A01EE901AF8EE611A05E001EE901AED
:1020F000DFED2B2AF8EE611A82EEA12A1168C1F3F6
:10210000080101EE901A1168F8EE611A40EE811A8A
:1021100071EE800A62EE200A00E033E0C1F346214E
:1021200001EE101AB8EE411A31EE001AC0EE811A13
:10213000BCEEE11A80ED001A1168C1F3064101EE10
:10214000101AB8EE411A31EE001AC0EE811ABCEE38
:10215000E11A80ED011A1168C1F3066101EE101A4F
:10216000B8EE411A31EE000A80EE801ABCEEC10AC8
:1021700080ED020A10BD01EE901ADFED0A2AF8EE9A
:10218000611AB9E7002101604160816010BD000063
:1021900028440258000000390024744A0090D003FB
:1021A0000024744C20BCBE4B2DE9F047014670481A
:1021B0004FF48076DFF8B481370502116D4B6E4D18
:1021C0008AB0A8F104044FF0005CB14229D1D8F8DC
:1021D000001001F0070105291FD2DFE801F0030A12
:1021E0000F20140006A8FFF705FE07980AB0BDE807
:1021F000F0876846FFF79CFE0098F7E703A8FFF713
:1022000035FF0398F2E7216811F04051EED0B94252
:1022100076D11046EAE71846E8E70020E6E72846C8
:10222000E4E7B1F5007F1AD0504E0836B1F5806F63
:1022300026D0B1F5006F37D04FF480594FF4804A63
:1022400049454BD1D8F8001001F4E041B1F5005FE9
:10225000D4D03DDC0029C5D04945DED1C9E7D8F846
:10226000001001F4E0718029C8D004DC0029B9D045
:102270004029D2D1BDE7C029D1D0B142CDD1C2E7EA
:10228000316801F46001B1F5800FB7D005DC002999
:10229000A8D0B1F5001FC0D1ABE7B1F5C00FBED0DB
:1022A000B1F5000FB9D1AEE7316801F0E061B1F1ED
:1022B000007FA3D005DC002994D0B1F1807FACD1A0
:1022C00097E7B1F1407FAAD0B1F1806FA5D19AE72D
:1022D000B1F5405FA3D051459FD194E74FF48035CD
:1022E000B1F5002F0DD0A9421DD1206810F4803027
:1022F000B1D0A84291D16846FFF71AFE029875E75F
:102300000EE0316811F44031A8D0A94203D0B1F5F4
:10231000003F82D177E703A8FFF7A8FE059865E79D
:1023200061459AD177E7514597D1316801F0E04195
:10233000B1F1405FE3D009DC81B1B94211D0614510
:102340008BD103A8FFF792FE04984FE7B1F1804FBD
:102350003FF45FAFB1F1A04F8BD15CE7FFF738FDE1
:1023600044E76846FFF7E4FD01983FE75044025810
:102370000090D00340787D010080BB0000B500F0E4
:1023800041F80A490A680968C2F30323084AD35C82
:1023900003F01F03D84001F00F01515C01F01F0151
:1023A000C840044908600449086000BD1844025848
:1023B0000C401008200000101C00001000B5FFF7B2
:1023C000DDFF05490968054AC1F30211515C01F0BE
:1023D0001F01C84000BD00001C4402580C401008FA
:1023E00000B5FFF7CBFF05490968054AC1F3022193
:1023F000515C01F01F01C84000BD00001C440258A0
:102400000C40100830B543480068444B10F03802C7
:10241000414808D00111082A03D0102A0BD0182AED
:102420000BD0084630BD19688906FBD51968C1F381
:10243000C101C84030BD3A4830BD364918310A683C
:10244000096802F00304334AC1F305111C32126813
:10245000304D02F0010224352D68C5F3CC0515FB83
:1024600002F200EE102AB8EE400AE9B3294A9FEDC5
:102470002D1AF7EE000A203264B1DFED2B1A012C81
:1024800001D0022C3CD002EE101AF8EE422A81EE66
:10249000A22A17E01C68A4060CD51B68C3F3C1036D
:1024A000D84001EE900AF8EE612A01EE901AF8EE9B
:1024B000611A05E001EE901ADFED1C2AF8EE611AB0
:1024C00082EEA12A1068C0F3080001EE900A10689D
:1024D000F8EE611A40EE011A31EEA00A22EE000A6F
:1024E000C0F34620401C00E011E000EE900AF8EE38
:1024F000600A80EE201ABCEEC10A10EE100A30BD50
:1025000001EE901ADFED0A2AF8EE611AD8E70020F2
:1025100030BD0000104402580090D003004402581F
:1025200040787D01000000390024744A0024744C76
:1025300020BCBE4B2DE9F05F040048D0FFF700F847
:1025400094F83800C449DFF81483012809D12068C1
:10255000884201D040453AD16068012837D1606C8B
:10256000A8BBDFF8F4B2206889460BF1200B484580
:1025700001D0584502D1B84E361F1BE0B8498842F9
:1025800003D0B7492031884202D1B54E361F11E041
:10259000B449884203D0B3492031884202D1B14EB8
:1025A000361F07E0404503D0AC49203188420ED1A8
:1025B000AA4E361F94F8910028B9002084F89000A4
:1025C000204600F057F9204600F08AFD10B10120A6
:1025D000BDE8F09F022084F89100E06820B1012856
:1025E0000CD002280CD00020A1684FF40067062907
:1025F00008D2DFE801F007090C0E12161020F3E7ED
:102600002020F1E700250FE04FF480650CE03D4607
:102610000AE03D4640F0010006E03D4640F0020081
:1026200002E03D4640F003003060206A4FF4007A3B
:10263000F0B321680020494501D0594503D14FF43A
:102640008070FFF7B1FD864A2168914203D0844A29
:102650002032914202D15046FFF7A6FD814A2168FF
:10266000914203D07F4A2032914202D15046FFF777
:102670009BFD2268424503D14FF48060FFF794FD33
:102680007649226820318A4202D13846FFF78CFD14
:10269000A169B1F5002F1FD0A16AB1F1806F2CD0D4
:1026A0005FF0010100EB80004200206A484300E037
:1026B00027E00002B2FBF0F00A22B0FBF2F1B0FB1F
:1026C000F2F302FB13006162082801D9491C616220
:1026D000606C042813D014E0616C042908D0082928
:1026E00008D0616D00EB80004200206A4843E1E7BA
:1026F0004021F7E74FF48071F4E70221D2E7480860
:102700006062606828B1022803D0206D012803D0E0
:1027100004E0206D012801D0574600E00027FEF7B5
:102720000FFFB0F5005F206801681DD34E4A1140CD
:102730000160616C60680843D4E9121211430843D8
:102740003843E16A2843084361690843A1690843A3
:10275000A18C40EA0150A16A08432169084321681D
:102760000A68104308601AE0404A11400160616C39
:1027700060680843D4E91212114308433843E16A00
:102780002843084361690843A1690843A18C40EAD2
:102790000151A06A0143206802681143016020686A
:1027A00041684EF20F029143416020684168E2693E
:1027B0001143D4E90C231A43114341602068816816
:1027C0002B4A11408160E16D606E626D0843216E9D
:1027D000521E11430843A26D6FF0FF0101EB02226C
:1027E000104322689368184390602068C2684FF2D3
:1027F00020031A40C260D4E91A021043226F01EB91
:102800000221B4F8742041EA024108432168CA68F1
:102810001043C8602068484501D0404513D1706C12
:1028200020F00100706494F8380001280BD1D4E93D
:102830000F106FF00F0202EB011108437064706C0F
:1028400040F0010070640020C4F89400012184F875
:10285000911084F89000BBE60458014004540058DD
:10286000045C01400460014010C005F010C005F890
:102870000080F8FF2DE9F043074600681F49204C0F
:102880000026204D87B04FF002084FF00A09884219
:1028900015D1E86838B9216841F400012160216848
:1028A00001F400010591401CE860F0200090CDE9A2
:1028B0000186CDE9036969461348FEF703FD0F4918
:1028C00038682031884216D1E86838B9216841F467
:1028D00000012160216801F400010591401CE860BD
:1028E0004FF480600090CDE90186CDE90369694627
:1028F0000648FEF7E7FC07B0BDE8F083045C014042
:10290000F04402580000001000200258001802583D
:1029100070B50D46040003D094F82C0010B107E008
:10292000012070BD002084F82D00204600F018F82A
:10293000022084F82C00211D2068FEF797F8D4E9C6
:1029400000022946FEF7C6F80448016841F000413C
:102950000160012084F82C00002070BD004000526E
:10296000FEF760BC03490A6822F4600202430A6071
:10297000704700000404005810B5401EB0F1807F7D
:1029800001D3012010BD4FF0E02460610F216017DA
:1029900001F082FA0020A06107202061002010BD14
:1029A00090F87C10012918D0012180F87C10242196
:1029B000C0F8801050F8601B0A680B6823F0010310
:1029C0000B6022F000510022426050F8603C196018
:1029D000202101620277104670470220704770B5CF
:1029E000044690F87C0001281DD0012084F87C006A
:1029F0002420C4F8800020680568026822F00102E3
:102A000002602068826822F060620A438260204689
:102A100000F0F8FD206805602020C4F88000002048
:102A200084F87C0070BD022070BD70B5044690F83B
:102A30007C0001281DD0012084F87C002420C4F8EB
:102A4000800020680568026822F0010202602068A8
:102A5000826822F060420A438260204600F0D2FD84
:102A6000206805602020C4F88000002084F87C00E5
:102A700070BD022070BD10B5040003D0D4F88000F2
:102A800010B107E0012010BD002084F87C00204632
:102A900000F026F82420C4F880002068016821F0A6
:102AA00001010160204600F073FE0128EBD0A06A0E
:102AB00010B1204600F0D8FD2068416821F4904113
:102AC00041602068816821F02A01816020680168E6
:102AD00041F0010101602046BDE8104000F028BE31
:102AE00010B586B0044614216846FDF7EEFC134984
:102AF0002068884220D11248016841F48021016099
:102B0000006800F4802005900D480838016841F005
:102B1000020101600068694600F0020005904FF470
:102B20004060009002200190002002900390072056
:102B300004900448FEF7C6FB06B010BD00480040F4
:102B4000E844025800040258FEE730B58FB004464E
:102B50000120ADF83800206800F008FD002853D0AF
:102B6000206800F051FB00284CD10021206800F0C3
:102B700001FDA0660421206800F0FCFCE06608214D
:102B8000206800F0F7FC20670C21206800F0F2FCC0
:102B900060670EA9206800F098FB002832D1BDF8CC
:102BA000380060640104206800F045FB002829D14A
:102BB0000021206800F0DEFCA0650421206800F000
:102BC000D9FCE0650821206800F0D4FC20660C21C7
:102BD000206800F0CFFC60660421206800F0CAFC89
:102BE000000D2064B4F84400002502042B46206840
:102BF00000F0F0FA002805D103A92046FEF722FDD7
:102C000028B1A06B0FB030BD4FF08060FAE7B4F888
:102C100044000104206800F03EFB10B1A16B0143A9
:102C2000A1632B46D4E90450D4E90112CDE9005048
:102C30000296206800F0A2FC0020E3E72DE9F04FA7
:102C400087B09A4617468B460446FEF77FFC00265F
:102C50000690A6632168CE62711E00914FF4007148
:102C60000191902102914FF001080221CDF81480CA
:102C7000CDE903166946206800F040FB002120687A
:102C800000F0F0FADFF8909028B32268C2F838908C
:102C9000A16B0143A16384F83480012007B0BDE833
:102CA000F08F406B00040DD50025206800F07CFCFF
:102CB0007119B1EB970F01D1CBF800006D1C082DF5
:102CC000F3D30836FEF742FC0699411A514517D254
:102CD000BAF1000F14D02068416B11F4957FE0D059
:102CE000B4F84410090400F0D6FA10B1A16B014306
:102CF000A16321680948886384F834800020CDE707
:102D00002168C1F83890A06B40F00040A06384F8BF
:102D100034800320C2E70000FF0FE01F3A0F0018C5
:102D2000164810B514490160416800240C704268CF
:102D3000802151704268E12191704168CC704168F6
:102D40000C7141684C7104720D49C1600D490161FB
:102D500040F2F4514161FDF721FF08483421343835
:102D6000FDF7B3FB05482121343801604FF44031B1
:102D7000C0E9044110BD000000800240580000106E
:102D80006000043000000430134812490122016041
:102D9000891581600021C16001744174817402232E
:102DA0004261C0E90623C0E908328262C262C0E91A
:102DB0000C2181630422C163C0E91012C0E9121220
:102DC000C0E914128165C1650166C0E91912FEF7F8
:102DD000A9B8000000A00040C80000101348124924
:102DE00001220160891581600021C1600174417474
:102DF000817402234261C0E90623C0E9083282627D
:102E0000C262C0E90C2181630422C163C0E91012CF
:102E1000C0E91212C0E914128165C1650166C0E9FA
:102E20001912FEF77FB8000000A4004068010010EE
:102E300000B587B01C216846FDF747FB10480F49D5
:102E4000002201600121C0E901120421C1601021AA
:102E50004023C0E904138023C0E9063202624262C3
:102E60008262009101910291039104910591069172
:102E70006946FFF74DFD07B000BD0000404100521C
:102E8000900A001070B586B014216846FDF71DFB4E
:102E90003448016841F480710160016801F4807177
:102EA0000591016841F002010160016801F0020131
:102EB0000591016841F040010160016801F04001A5
:102EC0000591016841F004010160016801F004010D
:102ED0000591016841F010010160016801F01001E5
:102EE0000591016841F080010160016801F08001F5
:102EF0000591016841F008010160016801F00801D5
:102F00000591016841F001010160016801F00101D2
:102F10000591016841F0200101600068124E00F047
:102F200020004FF400550590002229463046FEF758
:102F3000F6FA3020009002200024CDE901040A2096
:102F4000CDE9034069460948FEF7BCF90120009528
:102F5000CDE90104694630460394FEF7B3F906B0A3
:102F600070BD0000E04402580020025800100258D2
:102F70002DE9F0412548002423494464C0E90014A8
:102F80004FF04008C0E91284046584604461204920
:102F90008461C0E90741C460C4620463446380F88B
:102FA0003840012508272E024765C0E90F56C0E9C1
:102FB0001654046644668466C0E91B454467FFF7FF
:102FC000B9FA11491148203198300160032141605C
:102FD000C0E91148C46404654461C461C0E9025495
:102FE000C4620463446380F838404765C0E90F5603
:102FF000C0E91654046644668466C0E91B4544670C
:10300000BDE8F041FFF796BA045C0140540200109D
:1030100000EE0200114810B50F4901604FF4E13194
:103020004160002181600C22C160C0E9041281610D
:10303000C161016241628162FFF71DFD0021074805
:10304000FFF7F3FC00210548FFF7C9FCBDE810407D
:103050000248FFF7A5BC000000480040FC05001036
:103060000A48094902220160092141600021C0E9A2
:103070000321C0E9062101220162C0E90912C0E969
:103080000B21FEF7E3BC000000000840880600109A
:10309000FEE7704770472DE9F041984616460F4607
:1030A0000446069D08E0681C06D0FEF74FFAA0EB28
:1030B0000800A8420AD84DB120688068384000D086
:1030C0000120B042EFD10020BDE8F081042084F857
:1030D0004100606C40F0010060640120F4E70000F2
:1030E00010B50E4941F6583203680968B1FBF2F198
:1030F00089001C68002224F480341C6031B103680C
:103100001B68491EDB03F9D4104610BD50F8941F0C
:1031100041F0400101600322F6E700001C000010AE
:1031200010B586B004461020CDE9001000010290D1
:10313000002003904FF4805004906946204600F030
:1031400037FA41F288321021204600F0E9F806B043
:1031500010BD000030B585B00024054600940194F0
:103160004FF480500294CDE903406946284600F0B0
:103170001FFA0B484FF4FA510068B0FBF1F041F22E
:1031800088314843401E03D24FF0004005B030BDA7
:10319000696B0906F6D50348A8632046F6E70000E8
:1031A0001C000010C500200010B586B004460120A8
:1031B000CDE9001000020290002003904FF48050EF
:1031C00004906946204600F0F3F9204600F064F9C7
:1031D00006B010BD10B586B004460720CDE900202A
:1031E0004FF480700290002003904FF480500490C0
:1031F0006946204600F0DCF941F28832072120467A
:1032000000F08EF806B010BD10B586B0044600215F
:103210000220CDE900104FF44070CDE902014FF4D7
:10322000805004906946204600F0C2F9204600F024
:1032300009F906B010BD10B586B004460920CDE9E5
:1032400000104FF440700290002003904FF4805023
:1032500004906946204600F0ABF9204600F0F2F8F1
:1032600006B010BD10B586B004460820CDE90010A8
:1032700040010290002003904FF480500490694672
:10328000204600F095F941F288320821204600F0EE
:1032900047F806B010BD10B586B004460D20CDE944
:1032A00000104FF480700290002003904FF4805083
:1032B00004906946204600F07BF941F288320D21E6
:1032C000204600F02DF806B010BD30B585B00C4694
:1032D000054600210320CDE900104FF48070CDE9B0
:1032E0000201000104906946284600F061F9224677
:1032F0000321284600F0F4F805B030BD0A684262A8
:103300004A688262D1E902231A43D1E904310B43AE
:10331000C16A1A4321F0FF011143C16200207047C6
:1033200030B5454B4FF4FA541B68B3FBF4F3434CF0
:1033300053435B1E02D24FF0004030BD426B22422D
:10334000F7D09204F5D4426B520703D50421816370
:10335000084630BD426BD20702D00121816306E0EE
:10336000364A803282630269D2B28A4201D0012099
:1033700030BD002100F0FEF83149084201D10020A3
:1033800030BD002802DA4FF0007030BD410001D599
:10339000402030BD810001D5802030BDC10002D564
:1033A0004FF4807030BD010102D54FF4007030BD84
:1033B000410102D54FF4806030BDC10102D54FF408
:1033C000006030BD010202D54FF4805030BD410293
:1033D00002D54FF4005030BD810202D54FF4804039
:1033E00030BDC10202D54FF4004030BD410302D5CB
:1033F0004FF4003030BD810302D54FF4802030BD42
:10340000C10302D54FF4002030BD010402D54FF4B2
:10341000801030BD410402D54FF4001030BD81044E
:1034200002D54FF4800030BD000702D54FF40000F4
:1034300030BD4FF4803030BD1C000010450020002E
:1034400008E0FFFD12494FF4FA520968B1FBF2F1AE
:1034500041F288325143491E02D24FF0004070477A
:10346000426B12F0450FF6D09204F4D4416B490739
:1034700003D50421816308467047416BC90703D017
:10348000012181630846704702498163002070472B
:103490001C000010C50020000F494FF4FA520968C3
:1034A000B1FBF2F141F288325143491E02D24FF092
:1034B00000407047426B12F0450FF6D09204F4D4EE
:1034C000416B490703D504218163084670470349CE
:1034D00081630020704700001C000010C500200020
:1034E00030B5204B4FF4FA541B68B3FBF4F341F2B0
:1034F000883463435B1E02D24FF0004030BD446B02
:1035000014F0450FF6D0A404F4D4436B5B0703D545
:1035100004218163084630BD436BDB0702D00121E3
:10352000816303E00369DBB28B4201D0012030BD2F
:103530000D498163002100F01DF810F4604F04D0A4
:10354000410406D54FF4005030BD000C108000201F
:1035500030BD000402D54FF4805030BD4FF48030B0
:1035600030BD00001C000010C5002000006800F005
:1035700003007047084440697047000030B51143AC
:10358000DDE903452343194342682943024B1A40AE
:103590000A434260002030BD002CC0FF016841F0AA
:1035A0000301016000207047D0F8800070470000E0
:1035B0000A688260D1E901231A43D1E903310B4340
:1035C000C1681A43024B19401143C1600020704783
:1035D000C0E0FEFF7047FDF7C7BF00000848016864
:1035E00041F47001016006487838016841F010012B
:1035F000016003494FF001608039086070470000A6
:1036000088ED00E03FB514A1D1E90021CDE900210A
:1036100013A2D2E90012CDE90212416EB9B10268DB
:1036200091689268C1F34261520F1DF80240250172
:1036300002ACA25CB5FBF2F2A0F86A201DF80120F2
:10364000615C1201B2FBF1F1A0F868103FBD0121ED
:10365000A0F86A10F8E7000001010103070100006B
:10366000080402040801010190F82810C90706D0D7
:1036700001684A68C36A22F400321A434A6090F82B
:103680002810890706D501684A68036B22F4803246
:103690001A434A6090F82810490706D501684A681D
:1036A000436B22F480221A434A6090F828100907DD
:1036B00006D501684A68836B22F400421A434A60C7
:1036C00090F82810C90606D501688A68C36B22F4F1
:1036D00080521A438A6090F82810890606D501683E
:1036E0008A68036C22F400521A438A6090F828100A
:1036F000490611D501684A68436C22F480121A43C6
:103700004A60416CB1F5801F06D101684A68836C3C
:1037100022F4C0021A434A6090F82810090606D520
:1037200001684A68C06C22F4002202434A60704774
:10373000F8B500260446C0F88860FDF707FF054687
:10374000206800686FF07E47000708D52B460022EE
:103750004FF400112046009700F0F2F960B920689C
:10376000006840070AD52B4600224FF4800120460E
:10377000009700F0E5F908B10320F8BD2020C4F857
:103780008000C4F8840084F87C600020F8BD00004C
:103790002DE9F0470446016880682269E369104317
:1037A000626900251A431043626EDFF858C3024372
:1037B000086886B0D44B1840104308602068416800
:1037C000E26821F44051114341602168A0696145DC
:1037D00001D0226A10438A68CC4B1A4002438A60A7
:1037E0002068C16A626A21F00F011143C162C849B1
:1037F0002368C8488B420ED1006800F038001828B2
:1038000073D047DCB8B3082879D010286FD178E09E
:1038100028287ED17BE0C0498B4209D1006800F0A6
:103820000700062875D2DFE800F0546A6C6E7072EB
:10383000BA498B4209D1006800F00700062868D217
:10384000DFE800F0475D5F616365B5498B4209D1F0
:10385000006800F0070006285BD2DFE800F03A506D
:1038600052545658AF498B420BD1006800F0070004
:1038700006284ED200E010E0DFE800F02B4143457F
:103880004749A9498B420AD1006800F0380018283E
:1038900039D0B7DD2028BBD137E001213AE0A34978
:1038A0008B4209D1006800F00700062831D2DFE81A
:1038B00000F01026282A2C2E9D498B420BD100683F
:1038C00000F00700062824D2DFE800F003191B1DD2
:1038D0001F2100211EE063451BD18E48001D00689A
:1038E00000F00700062814D202E00CE007E010E028
:1038F000DFE800F0030507090B0D02210AE00421AF
:1039000008E0082106E0102104E0202102E0402127
:1039100000E080218748DFF8FC810711864E4FF0D8
:1039200000094FF40042A8F1540863454FD1102913
:1039300019D006DC022909D004290AD0082941D16E
:103940000CE020293FD040293CD13EE0FEF740FA70
:1039500012E06846FEF7ECFA01980DE003A8FEF7C6
:1039600085FB049808E0D8F80010890606D5D8F839
:103970000010C1F3C101C84000286FD0616A36F859
:1039800011206668B0FBF2F106EB46038B4219D8B2
:10399000B1EB063F16D800234F461946FCF7ECFC66
:1039A000090241EA1061020278084FEA3600101855
:1039B000794132460023FCF7DFFC604AA0F54071F4
:1039C000914270D989E03846D8E71046D6E7E369D6
:1039D0004FF6EF7A934246D1082918D005DC59B149
:1039E00001290CD0042978D10CE0102914D0202909
:1039F00035D0402971D134E0FEF7E0FC15E0FEF748
:103A0000EFFC12E06846FEF793FA01980DE003A878
:103A1000FEF72CFB049808E0D8F80010890605D5BD
:103A2000D8F80010C1F3C101C840B8B1616A36F8D6
:103A30001110B0FBF1F04100606801EB5001B1FBE7
:103A4000F0F080B2A0F11001514546D84FF6F07168
:103A50000140C0F3420001432068C16045E03846A0
:103A6000E4E71046E2E7082918D005DC59B101293E
:103A70000CD0042931D10CE0102915D020292ED0EA
:103A800040292AD12DE0FEF799FC16E0FEF7A8FCAC
:103A900013E06846FEF74CFA01980EE003A8FEF723
:103AA000E5FA049809E01EE0D8F80010890605D56B
:103AB000D8F80010C1F3C101C840B0B1616A36F84E
:103AC0001110B0FBF1F1606801EB5001B1FBF0F0B7
:103AD00080B2A0F11001514505D9012505E0384615
:103AE000ECE71046EAE72168C8600120A4F86A0004
:103AF00024F8680F2846C4F80490C4F8089006B06B
:103B0000BDE8F087000C0058F369FFCFFFF4FF1108
:103B10000010014054440258004400400048004056
:103B2000004C00400050004000140140007800406C
:103B3000007C00400090D003F43F1008FFFC0F0011
:103B40002DE9F0479A4617460E4604464FF0000905
:103B50004FF02008089D39E0681C37D0FDF7F6FCCF
:103B6000A0EB0A00A84222D80DB3206801684907DB
:103B70002CD5C069C043000528D421684FF40060EB
:103B800008622068016821F4D071016020688168B2
:103B900021F001018160C4F88080C4F88480C4F8F9
:103BA000888000BF84F87C900320BDE8F0872068FF
:103BB000016821F4D07101602068816821F0010161
:103BC0008160C4F88080C4F88480EBE72068C06915
:103BD00036EA000004D00020B842BDD00020E4E75F
:103BE0000120F9E770B5044606990A9E049D0D98D8
:103BF000012916D0E06840F04000E060204600F067
:103C00002BF8A16B1EB321F48031A163012D07D1E4
:103C1000A16841F00601A160A16841F02001A16006
:103C200070BDA16B21F48031A163E168094A1140A4
:103C3000E160E16821F44011E160012803D1E0680E
:103C400040F48010E060204600F006F8DEE741F422
:103C50008031DAE7BFFFBDFF01220C4902E0521CB0
:103C60008A420BD80369002BF9DA026942F001029B
:103C70000261012204E0521C8A4201D903207047EC
:103C80000369DB07F7D1002070470000400D0300F7
:103C900010B5D0F8041841F00201C0F80418032050
:103CA000FCF76AFF002010BD2DE9F04F00250E46FD
:103CB0000446DDF82CC0DDF824B0109F28462946C4
:103CC00004EB8002C2F80411401C0F28F8D32046F0
:103CD000A7B1806B40F40012A26308468846C4F87E
:103CE000000ED4F800182046C4F80018BCF1010FEB
:103CF00017D0D0F8001841F0030117E0D0F80408FD
:103D000040F00202C4F80428A06B20F40012A26361
:103D1000206840F040022260206840F0800222606B
:103D2000DBE7D0F800180BB141F00101C0F8001832
:103D3000102100F087F800B10125204600F072F84C
:103D400000B101254046C4F81088C4F81488C4F8AE
:103D50001C8800214FF000694FF0904A4FF67F33E6
:103D600015E000BF04EB4112D2F800C9BCF1000F0E
:103D700006DA11B1C2F800A904E0C4F8009901E024
:103D8000C2F80009C2F81009C2F80839491C8E426D
:103D9000E8D8002115E000BF04EB4112D2F800CBB7
:103DA000BCF1000F06DA11B1C2F800AB04E0C4F8B0
:103DB000009B01E0C2F8000BC2F8100BC2F8083BF0
:103DC000491C8E42E8D8D4F8101821F48072C4F847
:103DD0001028A0616FF080406061BBF1000F03D13B
:103DE000A06940F01000A061A06909490843A061E2
:103DF0000C9818B1A06940F00800A061012F03D110
:103E0000A06904490843A0612846BDE8F08F00007E
:103E100000383C8004000040816821F0010181608D
:103E200000207047002110220261054A491C91427E
:103E300001D9032070470369DB06F7D400207047DF
:103E4000400D03000022202343EA8111016105494E
:103E5000521C8A4201D90320704703699B06F7D49C
:103E600000207047400D030010B5C26822F0C04228
:103E7000C260012902D029B1012010BDC16841F002
:103E8000005102E0C16841F08041C1603220FCF77E
:103E900073FE002010BDFEE70907090E002804DBB1
:103EA00000F1E02080F80014704700F00F0000F1EE
:103EB000E02080F8141D70472C4808B5016841F0D7
:103EC00000710160006800F0007000900120FDF7B3
:103ED00043FBFDF771FE012202210020FDF774FE75
:103EE00023480068C0F3031007283CD0214801682C
:103EF00041F001010160FDF73FFBFEF7C3FFFEF754
:103F00000FFFFEF741FFFEF769FFFEF791FF1B4829
:103F1000194901250160FF21C0E901150024C0E90C
:103F2000034544618461C4610462FDF795FEFFF7B7
:103F30001FF814481249C0E90014E903C0E902411E
:103F40000461C0E90545FDF74BFCFFF763F8FFF797
:103F500087F86C030C4D21462846FDF7D9FAC82096
:103F6000FCF70AFEF7E703481038C0E7E0440258C0
:103F700000ED00E0146502580050005208020010E5
:103F80000070005284030010002002584FF040706F
:103F9000E1EE100A70470000000102030405060765
:103FA000080C101418203040000000000000000031
:103FB0000000000000000000000000000100000000
:103FC00002000000030000000400000000000000E8
:103FD00005000000000000000000000000000000DC
:103FE00006000000000000000000000000000000CB
:103FF00007000000010002000400060008000A009B
:104000000C001000200040008000000100000000B3
:104010000102030401020304060708093C401008DA
:104020000000001024000000D402100860401008B6
:1040300024000010046B0000F002100800000000D3
:10404000000000000000000000000000010000006F
:1040500010000000000000000090D0030090D0038A
:040000050810029944
:00000001FF
